{
  "_format": "hh-sol-artifact-1",
  "contractName": "Purchase_NFT",
  "sourceName": "contracts/Purchase_NFT.sol",
  "abi": [
    {
      "inputs": [
        {
          "internalType": "address",
          "name": "_contractAddress",
          "type": "address"
        },
        {
          "internalType": "uint256",
          "name": "_tokenId",
          "type": "uint256"
        }
      ],
      "stateMutability": "payable",
      "type": "constructor"
    },
    {
      "inputs": [],
      "name": "InvalidState",
      "type": "error"
    },
    {
      "inputs": [],
      "name": "OnlyBuyer",
      "type": "error"
    },
    {
      "inputs": [],
      "name": "OnlySeller",
      "type": "error"
    },
    {
      "inputs": [],
      "name": "abort",
      "outputs": [],
      "stateMutability": "nonpayable",
      "type": "function"
    },
    {
      "inputs": [],
      "name": "buyer",
      "outputs": [
        {
          "internalType": "address payable",
          "name": "",
          "type": "address"
        }
      ],
      "stateMutability": "view",
      "type": "function"
    },
    {
      "inputs": [],
      "name": "confirmPurchase",
      "outputs": [],
      "stateMutability": "payable",
      "type": "function"
    },
    {
      "inputs": [],
      "name": "confirmReceived",
      "outputs": [],
      "stateMutability": "nonpayable",
      "type": "function"
    },
    {
      "inputs": [],
      "name": "contractAddress",
      "outputs": [
        {
          "internalType": "address",
          "name": "",
          "type": "address"
        }
      ],
      "stateMutability": "view",
      "type": "function"
    },
    {
      "inputs": [],
      "name": "giveApprovalToContract",
      "outputs": [],
      "stateMutability": "nonpayable",
      "type": "function"
    },
    {
      "inputs": [],
      "name": "paySeller",
      "outputs": [],
      "stateMutability": "nonpayable",
      "type": "function"
    },
    {
      "inputs": [],
      "name": "price",
      "outputs": [
        {
          "internalType": "uint256",
          "name": "",
          "type": "uint256"
        }
      ],
      "stateMutability": "view",
      "type": "function"
    },
    {
      "inputs": [],
      "name": "seller",
      "outputs": [
        {
          "internalType": "address payable",
          "name": "",
          "type": "address"
        }
      ],
      "stateMutability": "view",
      "type": "function"
    },
    {
      "inputs": [],
      "name": "state",
      "outputs": [
        {
          "internalType": "enum Purchase_NFT.State",
          "name": "",
          "type": "uint8"
        }
      ],
      "stateMutability": "view",
      "type": "function"
    },
    {
      "inputs": [],
      "name": "tokenId",
      "outputs": [
        {
          "internalType": "uint256",
          "name": "",
          "type": "uint256"
        }
      ],
      "stateMutability": "view",
      "type": "function"
    }
  ],
  "bytecode": "0x608060405260405162001136380380620011368339818101604052810190620000299190620001a2565b33600360006101000a81548173ffffffffffffffffffffffffffffffffffffffff021916908373ffffffffffffffffffffffffffffffffffffffff16021790555060023462000079919062000218565b6000819055508060018190555081600260006101000a81548173ffffffffffffffffffffffffffffffffffffffff021916908373ffffffffffffffffffffffffffffffffffffffff1602179055506000600460146101000a81548160ff02191690836003811115620000f057620000ef62000250565b5b021790555050506200027f565b600080fd5b600073ffffffffffffffffffffffffffffffffffffffff82169050919050565b60006200012f8262000102565b9050919050565b620001418162000122565b81146200014d57600080fd5b50565b600081519050620001618162000136565b92915050565b6000819050919050565b6200017c8162000167565b81146200018857600080fd5b50565b6000815190506200019c8162000171565b92915050565b60008060408385031215620001bc57620001bb620000fd565b5b6000620001cc8582860162000150565b9250506020620001df858286016200018b565b9150509250929050565b7f4e487b7100000000000000000000000000000000000000000000000000000000600052601260045260246000fd5b6000620002258262000167565b9150620002328362000167565b925082620002455762000244620001e9565b5b828204905092915050565b7f4e487b7100000000000000000000000000000000000000000000000000000000600052602160045260246000fd5b610ea7806200028f6000396000f3fe60806040526004361061009c5760003560e01c8063a035b1fe11610064578063a035b1fe14610150578063a0c97bce1461017b578063b08051bb14610192578063c19d93fb146101a9578063d6960697146101d4578063f6b4dfb4146101de5761009c565b806308551a53146100a157806317d70f7c146100cc57806335a063b4146100f75780637150d8ae1461010e57806373fac6f014610139575b600080fd5b3480156100ad57600080fd5b506100b6610209565b6040516100c39190610b81565b60405180910390f35b3480156100d857600080fd5b506100e161022f565b6040516100ee9190610bb5565b60405180910390f35b34801561010357600080fd5b5061010c610235565b005b34801561011a57600080fd5b506101236103c1565b6040516101309190610b81565b60405180910390f35b34801561014557600080fd5b5061014e6103e7565b005b34801561015c57600080fd5b50610165610575565b6040516101729190610bb5565b60405180910390f35b34801561018757600080fd5b5061019061057b565b005b34801561019e57600080fd5b506101a7610715565b005b3480156101b557600080fd5b506101be61082f565b6040516101cb9190610c47565b60405180910390f35b6101dc610842565b005b3480156101ea57600080fd5b506101f3610b1a565b6040516102009190610c83565b60405180910390f35b600360009054906101000a900473ffffffffffffffffffffffffffffffffffffffff1681565b60015481565b600360009054906101000a900473ffffffffffffffffffffffffffffffffffffffff1673ffffffffffffffffffffffffffffffffffffffff163373ffffffffffffffffffffffffffffffffffffffff16146102bc576040517f85d1f72600000000000000000000000000000000000000000000000000000000815260040160405180910390fd5b60008060038111156102d1576102d0610bd0565b5b600460149054906101000a900460ff1660038111156102f3576102f2610bd0565b5b1461032a576040517fbaf3f0f700000000000000000000000000000000000000000000000000000000815260040160405180910390fd5b6003600460146101000a81548160ff021916908360038111156103505761034f610bd0565b5b0217905550600360009054906101000a900473ffffffffffffffffffffffffffffffffffffffff1673ffffffffffffffffffffffffffffffffffffffff166108fc479081150290604051600060405180830381858888f193505050501580156103bd573d6000803e3d6000fd5b5050565b600460009054906101000a900473ffffffffffffffffffffffffffffffffffffffff1681565b600460009054906101000a900473ffffffffffffffffffffffffffffffffffffffff1673ffffffffffffffffffffffffffffffffffffffff163373ffffffffffffffffffffffffffffffffffffffff161461046e576040517f86efbb5500000000000000000000000000000000000000000000000000000000815260040160405180910390fd5b600180600381111561048357610482610bd0565b5b600460149054906101000a900460ff1660038111156104a5576104a4610bd0565b5b146104dc576040517fbaf3f0f700000000000000000000000000000000000000000000000000000000815260040160405180910390fd5b6002600460146101000a81548160ff0219169083600381111561050257610501610bd0565b5b0217905550600460009054906101000a900473ffffffffffffffffffffffffffffffffffffffff1673ffffffffffffffffffffffffffffffffffffffff166108fc6000549081150290604051600060405180830381858888f19350505050158015610571573d6000803e3d6000fd5b5050565b60005481565b60028060038111156105905761058f610bd0565b5b600460149054906101000a900460ff1660038111156105b2576105b1610bd0565b5b146105e9576040517fbaf3f0f700000000000000000000000000000000000000000000000000000000815260040160405180910390fd5b600360009054906101000a900473ffffffffffffffffffffffffffffffffffffffff1673ffffffffffffffffffffffffffffffffffffffff163373ffffffffffffffffffffffffffffffffffffffff1614610670576040517f85d1f72600000000000000000000000000000000000000000000000000000000815260040160405180910390fd5b6003600460146101000a81548160ff0219169083600381111561069657610695610bd0565b5b0217905550600360009054906101000a900473ffffffffffffffffffffffffffffffffffffffff1673ffffffffffffffffffffffffffffffffffffffff166108fc60005460036106e69190610ccd565b9081150290604051600060405180830381858888f19350505050158015610711573d6000803e3d6000fd5b5050565b600360009054906101000a900473ffffffffffffffffffffffffffffffffffffffff1673ffffffffffffffffffffffffffffffffffffffff163373ffffffffffffffffffffffffffffffffffffffff161461079c576040517f85d1f72600000000000000000000000000000000000000000000000000000000815260040160405180910390fd5b600260009054906101000a900473ffffffffffffffffffffffffffffffffffffffff1673ffffffffffffffffffffffffffffffffffffffff1663095ea7b3306001546040518363ffffffff1660e01b81526004016107fb929190610d0f565b600060405180830381600087803b15801561081557600080fd5b505af1158015610829573d6000803e3d6000fd5b50505050565b600460149054906101000a900460ff1681565b600080600381111561085757610856610bd0565b5b600460149054906101000a900460ff16600381111561087957610878610bd0565b5b146108b0576040517fbaf3f0f700000000000000000000000000000000000000000000000000000000815260040160405180910390fd5b60005460026108bf9190610ccd565b3414610900576040517f08c379a00000000000000000000000000000000000000000000000000000000081526004016108f790610dbb565b60405180910390fd5b33600460006101000a81548173ffffffffffffffffffffffffffffffffffffffff021916908373ffffffffffffffffffffffffffffffffffffffff160217905550600260009054906101000a900473ffffffffffffffffffffffffffffffffffffffff1673ffffffffffffffffffffffffffffffffffffffff166323b872dd600360009054906101000a900473ffffffffffffffffffffffffffffffffffffffff16600460009054906101000a900473ffffffffffffffffffffffffffffffffffffffff166001546040518463ffffffff1660e01b81526004016109e693929190610e3a565b600060405180830381600087803b158015610a0057600080fd5b505af1158015610a14573d6000803e3d6000fd5b505050506003600460146101000a81548160ff02191690836003811115610a3e57610a3d610bd0565b5b0217905550600460009054906101000a900473ffffffffffffffffffffffffffffffffffffffff1673ffffffffffffffffffffffffffffffffffffffff166108fc6000549081150290604051600060405180830381858888f19350505050158015610aad573d6000803e3d6000fd5b50600360009054906101000a900473ffffffffffffffffffffffffffffffffffffffff1673ffffffffffffffffffffffffffffffffffffffff166108fc479081150290604051600060405180830381858888f19350505050158015610b16573d6000803e3d6000fd5b5050565b600260009054906101000a900473ffffffffffffffffffffffffffffffffffffffff1681565b600073ffffffffffffffffffffffffffffffffffffffff82169050919050565b6000610b6b82610b40565b9050919050565b610b7b81610b60565b82525050565b6000602082019050610b966000830184610b72565b92915050565b6000819050919050565b610baf81610b9c565b82525050565b6000602082019050610bca6000830184610ba6565b92915050565b7f4e487b7100000000000000000000000000000000000000000000000000000000600052602160045260246000fd5b60048110610c1057610c0f610bd0565b5b50565b6000819050610c2182610bff565b919050565b6000610c3182610c13565b9050919050565b610c4181610c26565b82525050565b6000602082019050610c5c6000830184610c38565b92915050565b6000610c6d82610b40565b9050919050565b610c7d81610c62565b82525050565b6000602082019050610c986000830184610c74565b92915050565b7f4e487b7100000000000000000000000000000000000000000000000000000000600052601160045260246000fd5b6000610cd882610b9c565b9150610ce383610b9c565b9250828202610cf181610b9c565b91508282048414831517610d0857610d07610c9e565b5b5092915050565b6000604082019050610d246000830185610c74565b610d316020830184610ba6565b9392505050565b600082825260208201905092915050565b7f506c656173652073656e6420696e20327820746865207075726368617365206160008201527f6d6f756e74000000000000000000000000000000000000000000000000000000602082015250565b6000610da5602583610d38565b9150610db082610d49565b604082019050919050565b60006020820190508181036000830152610dd481610d98565b9050919050565b6000819050919050565b6000610e00610dfb610df684610b40565b610ddb565b610b40565b9050919050565b6000610e1282610de5565b9050919050565b6000610e2482610e07565b9050919050565b610e3481610e19565b82525050565b6000606082019050610e4f6000830186610e2b565b610e5c6020830185610e2b565b610e696040830184610ba6565b94935050505056fea26469706673582212201d6c3a9dc5a01a45202d9183b9d3e9762aa7466a7ac98c87828cc46ffe41dadb64736f6c63430008110033",
  "linkReferences": {},
  "deployedLinkReferences": {}
}