{
  "_format": "hh-sol-artifact-1",
  "contractName": "Purchase_NFT",
  "sourceName": "contracts/Purchase_NFT.sol",
  "abi": [
    {
      "inputs": [
        {
          "internalType": "address",
          "name": "_contractAddress",
          "type": "address"
        },
        {
          "internalType": "uint256",
          "name": "_tokenId",
          "type": "uint256"
        }
      ],
      "stateMutability": "payable",
      "type": "constructor"
    },
    {
      "inputs": [],
      "name": "InvalidState",
      "type": "error"
    },
    {
      "inputs": [],
      "name": "OnlyBuyer",
      "type": "error"
    },
    {
      "inputs": [],
      "name": "OnlySeller",
      "type": "error"
    },
    {
      "inputs": [],
      "name": "abort",
      "outputs": [],
      "stateMutability": "nonpayable",
      "type": "function"
    },
    {
      "inputs": [],
      "name": "buyer",
      "outputs": [
        {
          "internalType": "address payable",
          "name": "",
          "type": "address"
        }
      ],
      "stateMutability": "view",
      "type": "function"
    },
    {
      "inputs": [],
      "name": "confirmPurchase",
      "outputs": [],
      "stateMutability": "payable",
      "type": "function"
    },
    {
      "inputs": [],
      "name": "confirmReceived",
      "outputs": [],
      "stateMutability": "nonpayable",
      "type": "function"
    },
    {
      "inputs": [],
      "name": "contractAddress",
      "outputs": [
        {
          "internalType": "address",
          "name": "",
          "type": "address"
        }
      ],
      "stateMutability": "view",
      "type": "function"
    },
    {
      "inputs": [],
      "name": "paySeller",
      "outputs": [],
      "stateMutability": "nonpayable",
      "type": "function"
    },
    {
      "inputs": [],
      "name": "price",
      "outputs": [
        {
          "internalType": "uint256",
          "name": "",
          "type": "uint256"
        }
      ],
      "stateMutability": "view",
      "type": "function"
    },
    {
      "inputs": [],
      "name": "seller",
      "outputs": [
        {
          "internalType": "address payable",
          "name": "",
          "type": "address"
        }
      ],
      "stateMutability": "view",
      "type": "function"
    },
    {
      "inputs": [],
      "name": "state",
      "outputs": [
        {
          "internalType": "enum Purchase_NFT.State",
          "name": "",
          "type": "uint8"
        }
      ],
      "stateMutability": "view",
      "type": "function"
    },
    {
      "inputs": [],
      "name": "tokenId",
      "outputs": [
        {
          "internalType": "uint256",
          "name": "",
          "type": "uint256"
        }
      ],
      "stateMutability": "view",
      "type": "function"
    }
  ],
  "bytecode": "0x608060405260405162000d9038038062000d908339818101604052810190620000299190620001a2565b33600360006101000a81548173ffffffffffffffffffffffffffffffffffffffff021916908373ffffffffffffffffffffffffffffffffffffffff16021790555060023462000079919062000218565b6000819055508060018190555081600260006101000a81548173ffffffffffffffffffffffffffffffffffffffff021916908373ffffffffffffffffffffffffffffffffffffffff1602179055506000600460146101000a81548160ff02191690836003811115620000f057620000ef62000250565b5b021790555050506200027f565b600080fd5b600073ffffffffffffffffffffffffffffffffffffffff82169050919050565b60006200012f8262000102565b9050919050565b620001418162000122565b81146200014d57600080fd5b50565b600081519050620001618162000136565b92915050565b6000819050919050565b6200017c8162000167565b81146200018857600080fd5b50565b6000815190506200019c8162000171565b92915050565b60008060408385031215620001bc57620001bb620000fd565b5b6000620001cc8582860162000150565b9250506020620001df858286016200018b565b9150509250929050565b7f4e487b7100000000000000000000000000000000000000000000000000000000600052601260045260246000fd5b6000620002258262000167565b9150620002328362000167565b925082620002455762000244620001e9565b5b828204905092915050565b7f4e487b7100000000000000000000000000000000000000000000000000000000600052602160045260246000fd5b610b01806200028f6000396000f3fe6080604052600436106100915760003560e01c8063a035b1fe11610059578063a035b1fe14610145578063a0c97bce14610170578063c19d93fb14610187578063d6960697146101b2578063f6b4dfb4146101bc57610091565b806308551a531461009657806317d70f7c146100c157806335a063b4146100ec5780637150d8ae1461010357806373fac6f01461012e575b600080fd5b3480156100a257600080fd5b506100ab6101e7565b6040516100b8919061089a565b60405180910390f35b3480156100cd57600080fd5b506100d661020d565b6040516100e391906108ce565b60405180910390f35b3480156100f857600080fd5b50610101610213565b005b34801561010f57600080fd5b5061011861039f565b604051610125919061089a565b60405180910390f35b34801561013a57600080fd5b506101436103c5565b005b34801561015157600080fd5b5061015a610553565b60405161016791906108ce565b60405180910390f35b34801561017c57600080fd5b50610185610559565b005b34801561019357600080fd5b5061019c6106f3565b6040516101a99190610960565b60405180910390f35b6101ba610706565b005b3480156101c857600080fd5b506101d1610833565b6040516101de919061099c565b60405180910390f35b600360009054906101000a900473ffffffffffffffffffffffffffffffffffffffff1681565b60015481565b600360009054906101000a900473ffffffffffffffffffffffffffffffffffffffff1673ffffffffffffffffffffffffffffffffffffffff163373ffffffffffffffffffffffffffffffffffffffff161461029a576040517f85d1f72600000000000000000000000000000000000000000000000000000000815260040160405180910390fd5b60008060038111156102af576102ae6108e9565b5b600460149054906101000a900460ff1660038111156102d1576102d06108e9565b5b14610308576040517fbaf3f0f700000000000000000000000000000000000000000000000000000000815260040160405180910390fd5b6003600460146101000a81548160ff0219169083600381111561032e5761032d6108e9565b5b0217905550600360009054906101000a900473ffffffffffffffffffffffffffffffffffffffff1673ffffffffffffffffffffffffffffffffffffffff166108fc479081150290604051600060405180830381858888f1935050505015801561039b573d6000803e3d6000fd5b5050565b600460009054906101000a900473ffffffffffffffffffffffffffffffffffffffff1681565b600460009054906101000a900473ffffffffffffffffffffffffffffffffffffffff1673ffffffffffffffffffffffffffffffffffffffff163373ffffffffffffffffffffffffffffffffffffffff161461044c576040517f86efbb5500000000000000000000000000000000000000000000000000000000815260040160405180910390fd5b6001806003811115610461576104606108e9565b5b600460149054906101000a900460ff166003811115610483576104826108e9565b5b146104ba576040517fbaf3f0f700000000000000000000000000000000000000000000000000000000815260040160405180910390fd5b6002600460146101000a81548160ff021916908360038111156104e0576104df6108e9565b5b0217905550600460009054906101000a900473ffffffffffffffffffffffffffffffffffffffff1673ffffffffffffffffffffffffffffffffffffffff166108fc6000549081150290604051600060405180830381858888f1935050505015801561054f573d6000803e3d6000fd5b5050565b60005481565b600280600381111561056e5761056d6108e9565b5b600460149054906101000a900460ff1660038111156105905761058f6108e9565b5b146105c7576040517fbaf3f0f700000000000000000000000000000000000000000000000000000000815260040160405180910390fd5b600360009054906101000a900473ffffffffffffffffffffffffffffffffffffffff1673ffffffffffffffffffffffffffffffffffffffff163373ffffffffffffffffffffffffffffffffffffffff161461064e576040517f85d1f72600000000000000000000000000000000000000000000000000000000815260040160405180910390fd5b6003600460146101000a81548160ff02191690836003811115610674576106736108e9565b5b0217905550600360009054906101000a900473ffffffffffffffffffffffffffffffffffffffff1673ffffffffffffffffffffffffffffffffffffffff166108fc60005460036106c491906109e6565b9081150290604051600060405180830381858888f193505050501580156106ef573d6000803e3d6000fd5b5050565b600460149054906101000a900460ff1681565b600080600381111561071b5761071a6108e9565b5b600460149054906101000a900460ff16600381111561073d5761073c6108e9565b5b14610774576040517fbaf3f0f700000000000000000000000000000000000000000000000000000000815260040160405180910390fd5b600054600261078391906109e6565b34146107c4576040517f08c379a00000000000000000000000000000000000000000000000000000000081526004016107bb90610aab565b60405180910390fd5b33600460006101000a81548173ffffffffffffffffffffffffffffffffffffffff021916908373ffffffffffffffffffffffffffffffffffffffff1602179055506001600460146101000a81548160ff0219169083600381111561082b5761082a6108e9565b5b021790555050565b600260009054906101000a900473ffffffffffffffffffffffffffffffffffffffff1681565b600073ffffffffffffffffffffffffffffffffffffffff82169050919050565b600061088482610859565b9050919050565b61089481610879565b82525050565b60006020820190506108af600083018461088b565b92915050565b6000819050919050565b6108c8816108b5565b82525050565b60006020820190506108e360008301846108bf565b92915050565b7f4e487b7100000000000000000000000000000000000000000000000000000000600052602160045260246000fd5b60048110610929576109286108e9565b5b50565b600081905061093a82610918565b919050565b600061094a8261092c565b9050919050565b61095a8161093f565b82525050565b60006020820190506109756000830184610951565b92915050565b600061098682610859565b9050919050565b6109968161097b565b82525050565b60006020820190506109b1600083018461098d565b92915050565b7f4e487b7100000000000000000000000000000000000000000000000000000000600052601160045260246000fd5b60006109f1826108b5565b91506109fc836108b5565b9250828202610a0a816108b5565b91508282048414831517610a2157610a206109b7565b5b5092915050565b600082825260208201905092915050565b7f506c656173652073656e6420696e20327820746865207075726368617365206160008201527f6d6f756e74000000000000000000000000000000000000000000000000000000602082015250565b6000610a95602583610a28565b9150610aa082610a39565b604082019050919050565b60006020820190508181036000830152610ac481610a88565b905091905056fea2646970667358221220b0fbda8ffa64f4c0acc13c8ed9b943c389ee66509f903be8e558048b1bfb6ffd64736f6c63430008110033",
  "linkReferences": {},
  "deployedLinkReferences": {}
}